:0400000007EF00F016
:0A0008005082ADED08F089EF0EF014
:100800000001000A006400E80310270A1F1F0E04FD
:100810000004040044697374616E6369613A2025C1
:100820006420636D0D0A002020202020202020203D
:1008300020202020202020005175696572652052FB
:1008400065746F6D61723F20005069657A61732035
:100850006120636F6E7461723A0056616C6F722032
:100860006F66662D6C696D69740050415049205166
:10087000554520505554415300447574793A20250C
:100880006425250D0A004E4F2044455445435441EC
:10089000444F004D616C20646967697461646F0046
:1008A000486F6C61206120746F646F7300506172D7
:1008B00061646F20646520005949504545454545B0
:1008C000454500456D657267656E636961004775F2
:1008D00061706973696D6F73004F626A65746976E0
:1008E0006F3A0046616C74616E3A00300000F00EA1
:1008F000936E956A8A6A8C6AF19E620E0001746F2B
:10090000650EE82EFED7742FFCD700D0F290F28649
:10091000F28E926A92809490948E948C89828994BB
:10092000070E8D6E969096929694B5EC10F00B0E85
:100930000001616F000E626F3DEC11F0010E8AEC58
:100940000FF0000EABEC0CF0000E6FEC0DF001ECB4
:1009500012F00BEC12F01CEC12F0F6EC11F0D0B22D
:1009600085D0D0B202D0D08201D0D092000E00014A
:10097000626F000E616F000E646F000E636F8BEC90
:1009800011F0380E0001616F6151D8A4080E626F3A
:10099000E5EC0EF0100E000196199711D8A461D065
:1009A000730E14EC12F00001746F7451A26FA36BFC
:1009B000780E14EC12F00001746F74519E6F9F6BEF
:1009C000010E8AEC0FF0000E0001626F000E616FE5
:1009D000000E646F000E636F8BEC11F0790E000156
:1009E0006F6FA2C070F0A3C071F0000E736F0A0E9B
:1009F000726F0BEC11F0790E616F626BE5EC0EF02B
:100A0000A2C060F0A3C061F0000E0001636F0A0E87
:100A1000626FEDEC0CF06051A86FA851F60DF35029
:100A2000A225766F7651840FD96EDA6ADF508C6E0C
:100A3000A8518E0FD96EDA6ADF508D6E030E000159
:100A4000756F8A0E746F550EE82EFED7742FFCD783
:100A5000752FFAD700D0000E00019D6F010E9C6F1C
:100A60000AD00C0E96199711D8A494D7000E000145
:100A7000A36F000EA26F010E8AEC0FF0000E0001B2
:100A8000626F000E616F000E646F000E636F8BEC7F
:100A900011F0A00E0001616F6151D8A4080E626FC1
:100AA000E5EC0EF0000E0001626F010E616F000EAA
:100AB000646F000E636F8BEC11F0CE0E0001616F5E
:100AC0006151D8A4080E626FE5EC0EF0070E00012C
:100AD000756F580E746F590EE82EFED7742FFCD721
:100AE000752FFAD700D000019C059D11D8A404D021
:100AF000000E996F030E03D0000E996F020E986FCF
:100B000019D3010E8AEC0FF0000E0001626F000E87
:100B1000616F000E646F000E636F8BEC11F0490E75
:100B20000001616F6151D8A4080E626FE5EC0EF010
:100B3000030E0001756F8A0E746F550EE82EFED7F6
:100B4000742FFCD7752FFAD700D0000E0001626F0A
:100B5000010E616F000E646F000E636F8BEC11F07D
:100B6000000E0001A56F000EA46F000E9F6F000E17
:100B70009E6F000E956F010E946FADD1630E9619A6
:100B80009711D8B4A3D1020EA419A511D8A480D16D
:100B90000A0E96199711D8A41AD0FF0EA425A46F97
:100BA000FF0EA521A56F000E626F010E616FA4C03C
:100BB00063F0A5C064F08BEC11F0360E0001616F9C
:100BC0006151D8A4080E626FE5EC0EF07FD1100ED3
:100BD00096199711D8A493D00A0E7F03F3CF74F01F
:100BE000F4CF75F08003F3507527815174259E6F03
:100BF000825175219F6F9FBF18D09F5103E19E05C1
:100C0000D8A013D09FBF06D09F510FE13C0E9E5D30
:100C1000D8B00BD0780E606F9E5153EC11F0000EDF
:100C20000001956F000E946F51D1000E806F000E81
:100C30007F6F000E826F000E816F000E626F010EDB
:100C4000616F000E646F000E636F8BEC11F0360E57
:100C50000001616F6151D8A4080E626FE5EC0EF0DF
:100C6000000E0001626F010E616F000E646F010ED5
:100C7000636F8BEC11F0360E0001616F6151D8A4E7
:100C8000080E626FE5EC0EF0000E0001626F010EBF
:100C9000616F000E646F000E636F8BEC11F05A0EE3
:100CA0000001616F6151D8A4080E626FE5EC0EF08F
:100CB000020E0001756F450E746FA90EE82EFED767
:100CC000742FFCD7752FFAD700D0000E0001626F89
:100CD000010E616F000E646F000E636F8BEC11F0FC
:100CE000270E0001616F6151D8A4080E626FE5EC18
:100CF0000EF0000E0001A56F000EA46FE7D0000EED
:100D0000806F000E7F6F000E826F000E816F000EED
:100D1000626F010E616F000E646F000E636F8BECEB
:100D200011F0360E0001616F6151D8A4080E626F98
:100D3000E5EC0EF0000E0001626F010E616F000E17
:100D4000646F010E636F8BEC11F0360E0001616F62
:100D50006151D8A4080E626FE5EC0EF0000E0001A0
:100D6000626F010E616F000E646F000E636F8BEC9B
:100D700011F0930E0001616F6151D8A4080E626FEB
:100D8000E5EC0EF0020E0001756F450E746FA90EB2
:100D9000E82EFED7742FFCD7752FFAD700D0000E9F
:100DA0000001626F010E616F000E646F000E636FD1
:100DB0008BEC11F0270E0001616F6151D8A4080E71
:100DC000626FE5EC0EF095D7FF0EA425A46FFF0E21
:100DD000A521A56F000E626F010E616FA4C063F0C4
:100DE000A5C064F08BEC11F0360E0001616F61510B
:100DF000D8A4080E626FE5EC0EF068D0A451020D85
:100E0000F3507F0FD96EDA6ADE6ADD6A000E626F18
:100E1000010E616FA4C063F0A5C064F08BEC11F00B
:100E2000EB0E0001616F6151D8A4080E626FE5EC12
:100E30000EF0010E0001A425A46F000EA521A56FE0
:100E400045D0A451020DF3507F0FD96EDA6A96C0D7
:100E5000DEFF97C0DDFF000E626F010E616FA4C060
:100E600063F0A5C064F08BEC11F0830E00016F6F8E
:100E700096C070F097C071F0000E736F0A0E726F1B
:100E80000BEC11F0830E616F626BE5EC0EF0D1D7C5
:100E900096C074F097C075F07551000AD8A4D1D7E8
:100EA00074510A0AD8B490D7010AD8B40FD0070AEF
:100EB000D8B40CD0010AD8B409D0030AD8B49ED74C
:100EC000010AD8B403D01F0AD8A4BBD7000E000172
:100ED000976F630E966F94059511D8A409D64ED6D8
:100EE000010E8AEC0FF0000E0001626F000E616FC0
:100EF000000E646F000E636F8BEC11F0D90E0001D1
:100F0000616F6151D8A4080E626FE5EC0EF07D0EA2
:100F100000016F6F9EC070F09FC071F0000E736F84
:100F20000A0E726F0BEC11F0000E626F000E616F13
:100F3000000E646F0D0E636F8BEC11F07D0E0001DF
:100F4000616F626BE5EC0EF0000E0001626F010E46
:100F5000616F000E646F000E636F8BEC11F0E30E97
:100F60000001616F6151D8A4080E626FE5EC0EF0CC
:100F70007D0E00016F6FA2519E5D706FA3519F594E
:100F8000716F000E736F0A0E726F0BEC11F0000E92
:100F9000626F010E616F000E646F0D0E636F8BEC5C
:100FA00011F07D0E0001616F626BE5EC0EF0000E3A
:100FB0000001A76F010EA66F8AD0AFEC0DF0000103
:100FC000776F7751F1EC10F0020E0001756F040E8F
:100FD000746FBA0EE82EFED7742FFCD7752FFAD790
:100FE000000000019A059B11D8B46CD0E0D7AFEC9B
:100FF0000DF00001786F7851F1EC10F0620E0001F5
:10100000746F650EE82EFED7742FFCD700D0000158
:101010009A519B11D8A456D0000EA76F000EA66F50
:10102000010EA225A26F000EA321A36F730E606FA5
:10103000A25153EC11F00001A2519E5DA06FA3518B
:101040009F59A16F58EC0EF023EC12F07B0E6F6FDE
:10105000A0C070F0A1C071F0000E736F0A0E726F25
:101060000BEC11F0000E626F010E616F000E646FE9
:101070000D0E636F8BEC11F0350E0001616F615145
:10108000D8A4080E626FE5EC0EF0000E0001626F4E
:10109000010E616F000E646F0D0E636F8BEC11F02B
:1010A0007B0E0001616F626BE5EC0EF000019E515A
:1010B000A21908E19F51A319D8A404D0000E996F7A
:1010C000040E986FA605A711D8A471D790D7030E68
:1010D00098199911D8A42ED070D7010E8AEC0FF070
:1010E00023D0000E626F000E616F000E646F000E61
:1010F000636F8BEC11F0B80E0001616F6151D8A4E1
:10110000080E626FE5EC0EF0000E0001A36F000EFA
:10111000A26F100E96199711D8A406D0CDEC11F03D
:10112000000E996F020E986F040E00019819991124
:10113000D8B4D7D798C074F099C075F07551000A2B
:10114000D8A4F8D77451020AD8B4DBD4010AD8B4B1
:10115000C7D6070AD8B4C1D7EDD70600D9CF2BF030
:10116000DACF2CF0F3CF2DF0F4CF2EF0F6CF2FF016
:10117000F7CF30F0F8CF31F0F5CF32F0F2A044D114
:10118000F00E8118D8B436D1000E0001976F000E12
:10119000966FFE0E8A6E81B807D026EC12F0000E14
:1011A0000001976F010E23D181BA07D026EC12F00F
:1011B000000E0001976F020E1AD181BC07D0000EFD
:1011C000976F030E966F26EC12F012D181BE04D0F9
:1011D000000E976F0A0EF6D7FD0E8A6E81B807D003
:1011E00026EC12F0000E0001976F040E00D181BAB8
:1011F00007D026EC12F0000E0001976F050EF7D015
:1012000081BC07D026EC12F0000E0001976F060E8D
:10121000EED081BE3AD026EC12F0000E0001976F9E
:101220000B0E966F030E98199911D8A4E1D0000EF9
:10123000A76F000EA66F9EC001F09FC002F0000EC7
:10124000046E0A0E036E21EC0EF00150476E4750FB
:10125000840FD96EDA6ADF508C6E9EC001F09FC099
:1012600002F0000E046E0A0E036E2EEC0DF001501B
:101270000001A86FA8518E0FD96EDA6ADF508D6E0B
:10128000000E996F040E986FB3D0FB0E8A6E81B872
:1012900007D026EC12F0000E0001976F070EA7D0C2
:1012A00081BA07D026EC12F0000E0001976F080EED
:1012B0009ED081BC07D026EC12F0000E0001976F83
:1012C000090E95D081BE41D0000E976F0C0E966F1F
:1012D000030E98199911D8A48BD0000EA36F000E9D
:1012E000A26F9EC0A0F09FC0A1F0330E156EA0C0EB
:1012F00016F0A1C017F0000E196E0A0E186E24EC3D
:1013000011F0000E036E010E026E000E056E0D0E42
:10131000046E9CEC11F0350E026E0250D8A4080E3B
:10132000036E38EC0FF0000E036E010E026E000E1D
:10133000056E0D0E046E9CEC11F0330E026E036A06
:1013400038EC0FF0ADEC11F053D0F70E8A6E81B887
:1013500031D0000E976F0D0E966F010E29EC10F034
:10136000000E036E000E026E000E056E000E046E7F
:101370009CEC11F0AD0E026E0250D8A4080E036E64
:1013800038EC0FF0000E036E010E026E000E056EBB
:10139000000E046E9CEC11F0C30E026E0250D8A435
:1013A000080E036E38EC0FF08D908D828D84040E44
:1013B000BE6EFFD781BA07D026EC12F0000E0001F6
:1013C000976F0E0E14D081BC0AD080B202D08982F1
:1013D00001D08992000E0001976F0F0E08D081BED8
:1013E00007D026EC12F0000E0001976F100E966FDA
:1013F000F00E8A6E210E2A6E760EE82EFED72A2E69
:10140000FCD700D0F29030D0F2A42ED044BE06D04B
:10141000445007E10A0E435CD8B003D0B8EC0EF09C
:1014200002D002EC10F0434A442AE9EC0DF04A6E77
:101430004A50DCEC11F0F294F80ED76E5E0ED66EC8
:1014400080B602D0898601D089964B2A4904D8A457
:1014500002D0482A01D0486A010E486401D0496A86
:101460000A0E4B18D8B4899232C0F5FF31C0F8FF8C
:1014700030C0F7FF2FC0F6FF2EC0F4FF2DC0F3FFE2
:101480002CC0DAFF2BC0D9FF509211000F0E126E44
:1014900084D0250E1718D8B407D00D50D96EDA6A4B
:1014A00017C0DFFF0D2A79D0136A0E2A0E04116EC1
:1014B00011C0F6FF080EF76E0800F5CF17F01750B1
:1014C000000AD8B477D0640AD8B403D00D0AD8A4DF
:1014D000E4D71250D96EDA6ADECF15F0DDCF16F000
:1014E000020E122616AE06D0030E1312156C161E2F
:1014F000D8B0162A010E176E1750020DF350010FC7
:10150000116E11C0F6FF080EF76E0900F550155C5C
:101510000900F5501658D8A005D0172A050E17183F
:10152000D8A4EAD713C011F0030E1116D8B406D010
:101530000D50D96EDA6A2D0EDF6E0D2A17C014F029
:1015400028D01450020DF350010F116E11C0F6FF98
:10155000080EF76E0900F5CF03F00A00F5CF04F08E
:1015600015C001F016C002F061EC0FF001C008F0E8
:1015700002C009F0000E0B6E0A0E0A6E94EC10F019
:101580000850300F176E0D50D96EDA6A17C0DFFFA2
:101590000D2A14061428D8A4D4D70E2A0E04116ECE
:1015A00011C0F6FF080EF76E0800F5CF17F01750C0
:1015B000D8A46FD70D50D96EDA6ADF6A12000EC058
:1015C00012F0136A146A0D34123601E313801250BC
:1015D000156E1550D8A407D0000E0C6E000E0D6EBF
:1015E000000E0E6E120011C012F0136A146A10344D
:1015F000123601E3138012501A6E1A50D8A407D085
:10160000000E0C6E000E0D6E000E0E6E12001A50C3
:101610007B0F15260EC01AF011501A1A800E1A16DA
:101620000D8E108EFF0E0F16FF0E1016000E1116E7
:10163000000E166E000E176E000E186E070E196E55
:101640000CA006D00F501626105017221150182249
:10165000D8900E320D320C32D8900F36103611362B
:10166000192EEED7090E196E0CA006D00F501626B3
:101670001050172211501822D8900E320D320C3211
:10168000D890183217321632192EEED716C001F044
:1016900017C002F018C003F015C004F01AC005F01E
:1016A000C2EC0BF001C00CF002C00DF003C00EF054
:1016B00012001DC01FF0206A216A1C341F3601E38E
:1016C00020801F50296E2950D8A409D0000E1B6E0F
:1016D000000E1C6E000E1D6E000E1E6E1200170E08
:1016E0001F6E1BC020F01CC021F01DC022F01F285F
:1016F000236E04D0D890223221322032232EFAD702
:101700002050246E1C8EFF0E1B16FF0E1C16000EA2
:101710001D161B50256E1C50266E1D50276E286A04
:101720008E0E295E29AE0DD02950800A8F0FD8A0C9
:10173000CDD7D8902832273226322532293EF9D704
:101740000DD0170E296407D0C1D7D890253626367C
:101750002736283629062950D8A4F7D72450D8B4DC
:1017600008D0281E271E261E256C000E26222722A2
:10177000282225C01BF026C01CF027C01DF028C061
:101780001EF012000450D8B405D00150021003100E
:10179000D8A40CD0000E016E000E026E000E036E77
:1017A0001200042AD890033202320132000E0114D2
:1017B000066E000E0214076EFE0E0314086E06502D
:1017C00007100810D8B40CD0ECD7042A010E01265B
:1017D000000E0222000E0322D890033202320132A0
:1017E000000E0114066E000E0214076EFF0E0314A5
:1017F000086E065007100810D8B406D0E6D70406C5
:10180000D89001360236033602BE03D0020E0460C1
:10181000F6D704A0029ED89004320450031205505B
:10182000D8A4038E01C001F002C002F003C003F08F
:10183000120068C06CF069C06DF06CC060F06DC0E3
:1018400061F06AC062F06BC063F00FEC0FF060C033
:101850006CF061C06DF0672B6C516D11D8A4EDD7A1
:101860006751D96EDA6ADF6A670768C060F069C0DD
:1018700061F06AC062F06BC063F073EC10F060510D
:101880006E6F68C060F069C061F06AC062F06BC0E2
:1018900063F00FEC0FF060C068F061C069F0090EF2
:1018A0006E6502D0070E6E27300E6E276751D96E17
:1018B000DA6A6EC0DFFF670768516911D8A4D5D70F
:1018C000672B12000EC012F00FC013F012C001F00F
:1018D00013C002F010C003F011C004F061EC0FF06F
:1018E00001C012F002C013F00D2A12501310D8A438
:1018F000EDD70D50D96EDA6ADF6A0D060EC008F01A
:101900000FC009F010C00AF011C00BF094EC10F0F9
:101910000850146E0EC001F00FC002F010C003F0AA
:1019200011C004F061EC0FF001C00EF002C00FF026
:10193000090E146402D0070E1426300E14260D5022
:10194000D96EDA6A14C0DFFF0D060E500F10D8A44E
:10195000D5D70D2A12000001666F000E0001686FD6
:10196000000E676F000E626F000E616F67C063F05C
:1019700068C064F08BEC11F000016651B2EC0FF01E
:10198000210E0001656F760EE82EFED7652FFCD77D
:101990000000000E0001626F000E616F67C063F00F
:1019A00068C064F08BEC11F0200EB2EC0FF0210E49
:1019B0000001656F760EE82EFED7652FFCD700007C
:1019C0000001674B682B68BFCDD7685105E1100E49
:1019D000675DD8B01200C6D71200656B63AF06D042
:1019E000626D631FD8B0632B010E656F61AF06D0C7
:1019F000606D611FD8B0612B010E651B000E676F13
:101A0000000E666F62516311D8B41CD0010E646F72
:101A100004D0D89062376337642B63AFFAD7D8907D
:101A2000663767376251605D63516159D8A005D050
:101A30006251605F6351615B6681D890633362334A
:101A4000642FEDD76551D8B404D0666D671FD8B048
:101A5000672B66C060F067C061F01200066A04AED2
:101A600006D0036C041ED8B0042A010E066E02AE26
:101A700006D0016C021ED8B0022A010E061A000E12
:101A8000086E000E076E03500410D8B41CD0010E6F
:101A9000056E04D0D89003360436052A04AEFAD772
:101AA000D890073608360350015C04500258D8A07D
:101AB00005D00350015E0450025A0780D8900432CA
:101AC0000332052EEDD70650D8B404D0076C081E9B
:101AD000D8B0082A07C001F008C002F01200666FF3
:101AE000000E0001686F100E676F000E626F000E2F
:101AF000616F67C063F068C064F08BEC11F00001A7
:101B00006651B2EC0FF0210E0001656F760EE82EE3
:101B1000FED7652FFCD70000000E0001626F000E9B
:101B2000616F67C063F068C064F08BEC11F0200E49
:101B3000B2EC0FF0210E0001656F760EE82EFED795
:101B4000652FFCD7000000016707D8A0680768BFB1
:101B500012006851CAE16705D8A01200C6D7040E6A
:101B6000BA6E000ECF6E000ECE6EA190828000D0B5
:101B70008290010E496E82B203D04904D8B4FBD7DB
:101B80004950D8A402D0000E1200CD80A1B002D0DE
:101B90009EA0FCD7CD909EA003D00001676917D00E
:101BA000E40EBB5C0D0EBC58D8A004D00D0EBC6E6C
:101BB000E40EBB6EBBCF60F0BCCF61F0000E000145
:101BC000636F0E0E626F0FEC0FF06051676F67511D
:101BD0001200040EBA6E000ECF6E000ECE6EA190F3
:101BE000828000D08290010E496E82B203D04904F7
:101BF000D8B4FBD74950D8A402D0000E1200CD8033
:101C0000A1B002D09EA0FCD7CD909EA002D00868C3
:101C100016D0E40EBB5C0D0EBC58D8A004D00D0E3F
:101C2000BC6EE40EBB6EBBCF01F0BCCF02F0000E69
:101C3000046E0E0E036E61EC0FF00150086E08503A
:101C40001200066A02AE06D0016C021ED8B0022A4B
:101C5000010E066E04AE04D0036C041ED8B0042A34
:101C600003500410D8B418D0010E056E04D0D890DB
:101C700003360436052A04AEFAD70350015C04503B
:101C80000258D8A004D00350015E0450025AD890E4
:101C900004320332052EF1D70650D8B404D0016CBB
:101CA000021ED8B0022A01C001F002C002F01200E8
:101CB000090E4718D8A41ED0476A050EA819D8B433
:101CC0000DD0A82B8984210E0001606F760EE82EBE
:101CD000FED7602FFCD7000089940DD0A86B8984B3
:101CE000620E0001606F650EE82EFED7602FFCD7F4
:101CF00000D0F2D7472A4750840FD96EDA6ADF50F6
:101D00008C6E0001A8518E0FD96EDA6ADF508D6E8D
:101D10001200D60EF66E230EF76E000EF86E00EE71
:101D200084F010EE16F00900F5CFEEFFE550E1501B
:101D3000FAE1520EF66E240EF76E000EF86E0900F0
:101D4000F5CF4EF00900F5CF4FF000EE9AF00F0EF0
:101D5000EE6AE806FDE100EE35F0190EEE6AE806DF
:101D6000FDE150905092000EF86E000177EF04F004
:101D7000000E66EC11F001C04CF002C04DF0BA0E3E
:101D80000F6E680E106E3E0E116E4CC009F04DC005
:101D90000AF079EC11F009C00CF00AC00DF00BC08C
:101DA0000EF0DFEC0AF00CC01BF00DC01CF00EC0F2
:101DB0001DF059EC0BF01BC03FF01CC040F03FC0C1
:101DC000BEFF3F50D4EC10F0120015D061C0F6FFFA
:101DD00062C0F7FFF86A070EF76403D00800F550F9
:101DE00005D0F6CFD9FFF7CFDAFFDF50B2EC0FF016
:101DF0000001614B622B61C0F6FF62C0F7FFF86A19
:101E0000070EF76403D00800F55005D0F6CFD9FFD0
:101E1000F7CFDAFFDF500009D8B41200D7D7000E91
:101E2000656F000E646F62516311D8B41CD0010E4F
:101E3000666F04D0D89062376337662B63AFFAD7EA
:101E4000D890643765376251605D63516159D8A09D
:101E500005D06251605F6351615B6481D8906333E8
:101E60006233662FEDD764C060F065C061F0120088
:101E700014D002C0F6FF03C0F7FFF86A070EF7643C
:101E800003D00800F55005D0F6CFD9FFF7CFDAFF21
:101E9000DF504EEC10F0024A032A02C0F6FF03C0E6
:101EA000F7FFF86A070EF76403D00800F55005D075
:101EB000F6CFD9FFF7CFDAFFDF500009D8B4120010
:101EC000D8D7000E066E000E056E03500410D8B46D
:101ED0001CD0010E076E04D0D89003360436072AB2
:101EE00004AEFAD7D890053606360350015C04508C
:101EF0000258D8A005D00350015E0450025A058054
:101F0000D89004320332072EEDD705C001F006C089
:101F100002F012000001606F899A8C500F0B8C6EDA
:101F200000016051F00B8C108C6E530EE82EFED722
:101F300000008988530EE82EFED7000089988C5047
:101F40000F0B8C6E00016039F00B8C108C6E530EF1
:101F5000E82EFED700008988530EE82EFED7000039
:101F6000899812000001606F898A8C500F0B8C6E6B
:101F700000016051F00B8C108C6E530EE82EFED7D2
:101F800000008988530EE82EFED7000089988C50F7
:101F90000F0B8C6E00016039F00B8C108C6E530EA1
:101FA000E82EFED700008988530EE82EFED70000E9
:101FB00089981200606F899A8C500F0B8C6E00010B
:101FC00060514009F00B8C108C6E530EE82EFED73A
:101FD00000008988530EE82EFED7000089988C50A7
:101FE0000F0B8C6E00016039F00B8C108C6E530E51
:101FF000E82EFED700008988530EE82EFED7000099
:1020000089981200AECF23F00DD0040E09D0320E05
:1020100007D0640E05D0960E03D0C80E01D0F00E86
:10202000BE6E13D02350420AD8B4F7D7010AD8B4F1
:10203000F0D70D0AD8B4F3D7180AD8B4ECD70E0AE3
:10204000D8B4E5D7020AD8B4E0D7BE50D4EC10F02B
:102050001200016E899A8C500F0B8C6E0150F00BA0
:102060008C108C6E530EE82EFED700008988530E1C
:10207000E82EFED7000089988C500F0B8C6E01382B
:10208000F00B8C108C6E530EE82EFED70000898862
:10209000530EE82EFED7000089981200016E898A3F
:1020A0008C500F0B8C6E0150F00B8C108C6E530EFD
:1020B000E82EFED700008988530EE82EFED70000D8
:1020C00089988C500F0B8C6E0138F00B8C108C6E35
:1020D000530EE82EFED700008988530EE82EFED757
:1020E00000008998120062516311D8B418D0010E13
:1020F000646F04D0D89062376337642B63AFFAD72C
:102100006251605D63516159D8A004D06251605F33
:102110006351615BD89063336233642FF1D760C041
:1021200060F061C061F012000A500B10D8B418D0F2
:10213000010E0C6E04D0D8900A360B360C2A0BAE6A
:10214000FAD70A50085C0B500958D8A004D00A509E
:10215000085E0B50095AD8900B320A320C2EF1D778
:1021600008C008F009C009F01200956A300E8AEC28
:102170000FF0FA0E00D0E82EFDD7300E8AEC0FF0EB
:10218000530EE82EFED70000320E8AEC0FF0280E18
:102190008AEC0FF00C0E8AEC0FF0010E8AEC0FF0B7
:1021A000060E8AEC0FF01200226E2250640DF3CF5F
:1021B00001F0F4CF02F0000E046EFA0E036E2EEC66
:1021C0000DF00150226E180E0D6E790E0E6E22C0AB
:1021D0000FF0106A46EC0AF0180E016EBDEC11F01B
:1021E0001200606F00019A519B11D8A408D0060E0E
:1021F000606105D0000E9B6F010E9A6F12009A0568
:102200009B11D8A41200060E60651200000E9B6F91
:10221000000E9A6F120071AF0AD06F51D96EDA6A50
:102220002D0EDF6E6F2B706D711FD8B0712B6FC0CC
:1022300067F070C068F071C069F072C06AF073C076
:102240006BF019EC0CF0120017AE0AD01550D96ED5
:10225000DA6A2D0EDF6E152A166C171ED8B0172AF3
:1022600015C00DF016C00EF017C00FF018C010F01A
:1022700019C011F062EC0CF012006251080DF3501D
:10228000DAEC0FF00001636B61C0F6FF080EF76E29
:102290000800F550B2EC0FF00001612B632B070E24
:1022A0006365F2D71200616FF29E61C0A8FF60C043
:1022B000A9FFA69EA69CA684550EA76EAA0EA76E81
:1022C000A682A694A1A8FED7F28E1200046E04C0C6
:1022D00003F0D8900336D8900336C250030B031096
:1022E000C26EC282C2B2FED7C3CF01F0C4CF02F029
:1022F000120009C001F00AC002F0036A8E0E046EDB
:10230000000E056EC2EC0BF001C009F002C00AF02D
:1023100003C00BF0120062BF0AD0625103E16105F5
:10232000D8A005D06351C00F8AEC0FF012006351A2
:10233000800F8AEC0FF0120003BE0AD0035003E1B5
:102340000204D8A005D00450C00F29EC10F01200F0
:102350000450800F29EC10F01200476A0001A86BAE
:102360004750840FD96EDA6ADF508C6EA8518E0FF9
:10237000D96EDA6ADF508D6E120008D0ACA2FED79B
:102380000150D96EDA6ADF50AD6E012A0150D96E64
:10239000DA6ADF50D8B41200F1D7476AA86B475009
:1023A000840FD96EDA6ADF508C6EA8518E0FD96E09
:1023B000DA6ADF508D6E1200226E180E0D6E140E4A
:1023C0000E6E22C00FF0106A46EC0AF0180E016E75
:1023D000BDEC11F012000001020304050607080914
:1023E000020301050400010063000100F90ECB6E39
:1023F0009494640EBE6ECA6ACC6A0C0EBD6ECA841A
:102400001200060ED56EF80ED76E5E0ED66EF28AEC
:10241000F294D58E1200240EAC6E900EAB6E080EA8
:10242000B86E190EAF6E1200606F60C0A9FFA69E55
:10243000A69CA680A8501200010EC26E0D0EC16EA1
:10244000880EC06E12004B6A808212004B6A808236
:042450001200040072
:020000040020DA
:08000000FFFFFFFFFFFFFFFF00
:020000040030CA
:0E00000000091F1EFF8181FF0FC00FE00F409F
:00000001FF
